:020000040800F2
:100000007807002089010008E7160008E1110008C0
:10001000E51600088F020008531B000800000000CE
:10002000000000000000000000000000B5180008FB
:1000300091020008000000007D180008B7180008B1
:10004000A3010008A3010008A3010008A301000800
:10005000A3010008A3010008A3010008A3010008F0
:10006000A3010008A3010008A3010008A3010008E0
:10007000A3010008A3010008A3010008A3010008D0
:10008000A3010008A3010008A3010008A3010008C0
:10009000A3010008A3010008A3010008A3010008B0
:1000A000A3010008A3010008A3010008A3010008A0
:1000B000A3010008A3010008A3010008A301000890
:1000C000A3010008A3010008A3010008A301000880
:1000D000A3010008A3010008A3010008A301000870
:1000E000A3010008A3010008A301000800F002F822
:1000F00000F03AF80AA090E8000C82448344AAF188
:100100000107DA4501D100F02FF8AFF2090EBAE885
:100110000F0013F0010F18BFFB1A43F0010318473B
:100120004023000060230000103A24BF78C878C143
:10013000FAD8520724BF30C830C144BF04680C60ED
:10014000704700000023002400250026103A28BF35
:1001500078C1FBD8520728BF30C148BF0B60704739
:100160001FB51FBD10B510BD00F058F81146FFF7C0
:10017000F7FF01F019FD00F076F803B4FFF7F2FF86
:1001800003BC00F07DF8000009488047094800479B
:10019000FEE7FEE7FEE7FEE7FEE7FEE7FEE7FEE737
:1001A000FEE7FEE704480549054A064B7047000094
:1001B00019190008ED0000087801002078070020D8
:1001C00078030020780300204FF0000200B51346AA
:1001D00094469646203922BFA0E80C50A0E80C5067
:1001E000B1F12001BFF4F7AF090728BFA0E80C5018
:1001F00048BF0CC05DF804EB890028BF40F8042B11
:1002000008BF704748BF20F8022B11F0804F18BF7D
:1002100000F8012B7047704770477047754600F033
:100220002BF8AE4605006946534620F00700854688
:1002300018B020B5FFF7B6FFBDE820404FF000062C
:100240004FF000074FF000084FF0000B21F00701BE
:10025000AC46ACE8C009ACE8C009ACE8C009ACE801
:10026000C0098D46704710B50446AFF300802046A4
:10027000BDE81040FFF781BF00487047140100201F
:1002800001491820ABBEFEE7260002007047FEE7DA
:10029000704772B6FEE7000070B5044600F00CF936
:1002A0000546601C02D004480078044400F004F9BC
:1002B000401BA042FAD370BD200000202DE9F84F6A
:1002C000DFF8B8910024A9F1040B23460F2709F1A8
:1002D000040AABF1040EC9E00125A5402A40AA4258
:1002E0007DD1674ED1F804C0ACEB0608B44532D0DE
:1002F00014DCBCF1030F3AD009DCBCF1000F2AD0AA
:10030000BCF1010F1CD0BCF1020F31D11DE0BCF1DA
:10031000110F17D0BCF1120F2AD119E0B8F5881FC0
:1003200019D006DCB8F5803F15D0B8F5801F1FD175
:1003300011E0B8F5001F0ED0B8F5041F18D10AE07F
:10034000CB6815E0CB681B1D12E0CB6808330FE0CB
:10035000CB680C330CE08B682BB1012B4FF00803FA
:1003600003D0456104E0042302E0056100E00023BE
:10037000FF2A01D8064601E000F104064FEA840591
:1003800001D9A5F12005D6F8008007FA05FC28EA76
:100390000C0803FA05F548EA0508C6F800804D6820
:1003A000ED0062D5374DAE6946F00106AE61AD692C
:1003B00024F0030605F001050095334D06EB050C0E
:1003C000DCF80850A607360F07FA06F825EA0805F4
:1003D000DFF8B880404503D14FF0000817E044E053
:1003E000DFF8AC80404502D14FF001080FE0DFF8A4
:1003F000A480404502D14FF0020808E0DFF8988061
:10040000404502D14FF0030801E04FF0040808FA1C
:1004100006F848EA0508CCF808804D68D9F800606D
:10042000ED024D4601D5164300E096432E604D681F
:10043000DAF80060AD02554601D5164300E0964358
:100440002E604D68DBF80060AD035D4601D51643B4
:1004500000E096432E604D68DEF80060ED037546BF
:1004600001D5164300E096432E60641C0D682A46B1
:10047000E5407FF431AFBDE8F88F0000080401408B
:10048000000011100010024000000140000801406F
:10049000000C01400010014000140140C26821EA34
:1004A00002030A4043EA0241016170470AB1016157
:1004B00070470904FBE700000148806870470000AE
:1004C0002000002070B5040025D094F83D000025E0
:1004D00020B984F83C50204600F050F9242084F8DC
:1004E0003D002068016821F0010101602068016879
:1004F00041F4004101602068016821F4004101607D
:1005000000F08AFA4D4A6168914201D84C4900E0F6
:100510004C49884201D2012070BD4B492368B0FB91
:10052000F1F15E6826F03F060E435E606368934219
:1005300006D94FF4967359434FF47A73B1FBF3F134
:100540002368491C1E6A26F03F0631431962616820
:10055000914210D84900401EB0FBF1F2521CC2F388
:100560000B02042A01D2042022E0B0FBF1F0401C6F
:10057000C0F30B001CE0A268F2B301EBC10303EB74
:100580000116431EB3FBF6F35B1C43F480431B05CB
:1005900049D092B301EBC10202EB0111401EB0FB46
:1005A000F1F0401CC0F30B0040F4804040F40040E8
:1005B0002168CA694CF6FF739A431043C861D4E9B5
:1005C000071001432068026822F0C0021143016055
:1005D000D4E9030101432068826848F2FF339A435B
:1005E00011438160D4E9050108432168CA6822F0FB
:1005F000FF021043C86001E00EE016E020680168C9
:1006000041F0010101602564202084F83D0025634C
:1006100084F83E50002070BD01EB4106431EB3FB41
:10062000F6F35B1CB3E70120C2E701EB4101401E7A
:10063000B0FBF1F0401CC0F30B00B7E7A08601004F
:1006400080841E0000093D0040420F002DE9FF4F4D
:1006500083B09A46DDE9119793460446DDF8408061
:10066000FFF72AFF054694F83D0020287FD1192383
:10067000012240492046009500F04AFE002876D12C
:1006800094F83C00012872D0012084F83C002068D6
:100690000168C90703D1016841F0010101602068C8
:1006A000016821F400610160212084F83D004020B0
:1006B00084F83E0000262664C4F82480A4F82A901A
:1006C000608D20852C48E062CDE9007553465A467E
:1006D0002046049900F09CFD70B930E02A46394666
:1006E000204600F0BBFE58B1206C042804D12068DD
:1006F000016841F400710160012007B0BDE8F08F8E
:10070000606A216800780861606A401C6062218D1F
:10071000491E89B22185628D521E62852268536905
:10072000DB435B070BD469B100781061606A401C41
:100730006062208D401E2085608D401E6085208D6A
:100740000028CBD12A463946204600F0B5FD0028C6
:10075000CAD154F83D0B016841F4007101602020BA
:1007600004F81E09E67766770020C6E7FFE7022057
:10077000C3E70000020010000000FFFF10B586B0C4
:100780000021009101910291039100680F49884274
:100790001AD10F4CA06940F00800A061A069694619
:1007A00000F008000490C020009012200190032067
:1007B00003900848FFF782FDE06940F40010E06113
:1007C000E06900F40010049006B010BD0054004031
:1007D00000100240000C0140024881680278114478
:1007E0008160704720000020074810B5016841F083
:1007F00010010160032000F067F80F2000F006F8F8
:1008000000F024F8002010BD0020024070B50D4D0E
:1008100004464FF47A712878B1FBF0F00A49096870
:10082000B1FBF0F000F0BEFA48B9102C07D200225C
:100830002146501E00F028F800206C6070BD012099
:1008400070BD0000200000202C0000200C4808B5DE
:10085000816941F001018161816901F0010100912B
:10086000C16941F08051C161C06900F080500090C1
:100870000448416821F0E06141F00071416008BD29
:100880000010024000000140F0B40E4B1B680C4603
:10089000C3F30223C3F10705042D00D90425191D54
:1008A000072901D2002300E0DB1E012606FA05F12C
:1008B000491E214099409E40761E16403143F0BCAF
:1008C00001F062B90CED00E0064900F0070208688B
:1008D0004FF6FF03184040EA0220034A1043086025
:1008E000704700000CED00E00000FA052DE9F0472C
:1008F0000F46050061D0434E306800F00700B84253
:1009000009D2306820F0070038433060306800F0CA
:100910000700B84251D128683B4C810712D54007E7
:1009200003D5606840F4E06060602878000703D574
:10093000606840F4605060606068A96820F0F00072
:10094000084360602878C00728D06868012810D064
:100950002168022810D0890700292EDA616821F069
:10096000030101436160FFF7A7FD804641F288392A
:100970000DE021688903EFE78901EDE7FFF79CFDB2
:10098000A0EB0801494502D90320BDE8F087606863
:10099000696800F00C00B0EB810FEFD1306800F017
:1009A0000700B8420BD9306820F0070038433060A8
:1009B000306800F00700B84201D00120E5E7287850
:1009C000400705D56068E96820F4E060084360608E
:1009D0002878000706D56068296920F4605040EA4D
:1009E000C100606000F028F86168084AC1F3031193
:1009F000515CC8400649086006480068FFF706FFDA
:100A00000020C2E7002002400010024046240008F7
:100A10002C00002024000020044805490068496893
:100A2000044AC1F30221515CC84070472C000020E9
:100A300000100240562400080E4A51680E4801F08A
:100A40000C03042B11D0082B0FD10C48C1F38343A6
:100A5000C903C05C0AD55168084AC1F34041921EDF
:100A6000515C054A5043B0FBF1F0704704494843DC
:100A7000704700000010024000127A00362400087F
:100A800000093D002DE9F84F040070D02078C04DDA
:100A9000C00749D06868C0F38100012807D06868A2
:100AA000C0F38100022809D16868C00306D5286810
:100AB000800339D560680028E7D035E06068B0F57C
:100AC000803F0BD010B1B0F5A02F11D0286820F4D2
:100AD00080302860286820F4802002E0286840F4F4
:100AE00080302860606890B1FFF7E6FC06460AE0B7
:100AF000286840F480202860F0E700BFFFF7DCFCA6
:100B0000801B642873D828688003F7D50CE0FFF7B2
:100B1000D3FC064605E000BFFFF7CEFC801B64282F
:100B2000F0D828688003F7D420789A4E80074FF0D9
:100B300001094FF0000839D5686810F00C0F07D094
:100B40006868C0F38100022809D16868C00306D430
:100B50002868800714D52069012808D110E0206991
:100B6000B0B1C6F80090FFF7A7FC074605E00AE120
:100B7000FFF7A2FCC01B0228C4D828688007F7D55D
:100B80002868616920F0F80040EAC10028600DE0A3
:100B9000C6F80080FFF790FC074604E0FFF78CFCE6
:100BA000C01B022823D828688007F7D420780007C4
:100BB0002CD57948A169D9B1C0F80090FFF77CFC29
:100BC000074604E0FFF778FCC01B02280FD8686ACC
:100BD0008007F7D571484FF4FA510068B0FBF1F087
:100BE000009000BF0098411E0091FAD20EE080E014
:100BF000C0F80080FFF760FC074604E0FFF75CFCEC
:100C0000C01B022875D8686A8007F7D4207840078F
:100C100060D5E8690027C00008D4E86940F080503A
:100C2000E861E869012700F0805000905C480168A5
:100C3000C90513D40168834641F480710160FFF750
:100C40003BFC824606E000BFFFF736FCA0EB0A0043
:100C500064284ED8DBF80000C005F5D5E06801280F
:100C60000AD008B1052813D0286A20F001002862B4
:100C7000286A20F0040002E0286A40F0010028629F
:100C8000E06841F2883B98B1FFF716FC82460BE022
:100C9000286A40F004002862EEE700BFFFF70CFC72
:100CA000A0EB0A0159455AD8286A8007F6D50CE00E
:100CB000FFF702FC824605E0FFF7FEFBA0EB0A010E
:100CC00059454CD8286A8007F6D41FB1E86920F04E
:100CD0008050E861E06988B36968C1F38101022945
:100CE00044D00228C6F8608004D0FFF7E5FB044634
:100CF00038E034E0FFF7E0FB074604E0FFF7DCFBF9
:100D0000C01B02282BD828688001F7D4206AB0F5D0
:100D1000803F05D16868A16820F40030084368600E
:100D2000D4E908010843696821F474110843686034
:100D3000C6F86090FFF7C0FB044606E025E000BF60
:100D4000FFF7BAFB001B022809D828688001F7D5F5
:100D50001BE000BFFFF7B0FB001B022802D90320F5
:100D6000BDE8F88F28688001F4D40EE00128F7D0A0
:100D70006868226A00F48031914204D1616A00F40B
:100D80007010884201D00120EAE70020E8E7000067
:100D90000010024000004242800442422C00002029
:100DA0000070004010B5401EB0F1807F01D30120DB
:100DB00010BD4FF0E02460610F21601700F0E4FEE9
:100DC0000020A06107202061002010BD70B590F8C0
:100DD0003C20012A26D0012480F83C40022280F8E1
:100DE0003D2003685A689D6822F070060A68324305
:100DF0005A600D4B02689A4208D0B2F1804F05D07C
:100E00000A4B9A4202D00A4B9A4204D1496825F013
:100E100080031943916080F83D40002180F83C1028
:100E2000084670BD022070BD002C01400004004047
:100E30000008004010B5040003D094F83D0010B144
:100E400007E0012010BD002084F83C00204600F09F
:100E50001FF8022084F83D00211D206800F05EFD8F
:100E6000012084F8460084F83E0084F83F0084F8AE
:100E7000400084F8410084F8420084F8430084F87C
:100E8000440084F8450084F83D00002010BD0000B7
:100E900008B501680B48B1F1804F0BD00A4A914266
:100EA00007D1C16941F00201C161C06900F00200CF
:100EB000009008BDC16941F00101C161C06900F045
:100EC0000100F5E7001002400004004070B5044640
:100ED00090F83C000025012817D0012684F83C60DA
:100EE000022084F83D002068826822F0770222F414
:100EF0007F4282600868502838D00DDC20284FD00F
:100F000005DC90B3102811D14AE0022070BD3028D2
:100F100046D040280AD13BE060282FD070280DD061
:100F2000B0F5805F03D0B0F5005F12D0012584F8E2
:100F30003D60002084F83C00284670BDCB68D1E9B4
:100F40000121206800F02DFD2068816841F07701C3
:100F500009E0CB68D1E90121206800F022FD20687A
:100F6000816841F480418160E1E719E0CA6849681D
:100F7000206800F0CBFD5021206806E0CA6849686F
:100F8000206800F0D4FD6021206800F014FDCEE759
:100F9000CA684968206800F0B9FD40212068F4E77C
:100FA000226801461046F0E700B585B000210091A7
:100FB000019102910391026814480221B2F1804F1D
:100FC00014D0134B9A420FD1826942F00802826119
:100FD0008069039100F0080004900120CDE9000130
:100FE00069460C48FFF76AF905B000BD826942F016
:100FF000040282618069039100F0040004900420DF
:10100000CDE9000169460448ECE700000010024009
:1010100000040040000C01400008014070B5044687
:1010200090F83C0000260D4601280FD0012084F8DE
:101030003C006AB1042A1DD0082A2FD00C2A3FD0C8
:101040000126002084F83C00304670BD022070BDAF
:10105000206800F0B9FC2068816941F008018161D5
:101060002068816921F004018161206881692A6911
:10107000114311E0206800F0CFFC2068816941F441
:10108000006181612068816921F48061816120684B
:1010900081692A6941EA02218161D2E7206800F072
:1010A000E7FC2068C16941F00801C1612068C1699D
:1010B00021F00401C1612068C1692A69114311E06E
:1010C000206800F001FD2068C16941F40061C16140
:1010D0002068C16921F48061C1612068C1692A6901
:1010E00041EA0221C161ACE710B5040003D094F8D5
:1010F0003D0010B107E0012010BD002084F83C0045
:10110000204600F01EF8022084F83D00211D2068D2
:1011100000F004FC012084F8460084F83E0084F8C6
:101120003F0084F8400084F8410084F8420084F8CD
:10113000430084F8440084F8450084F83D00002012
:1011400010BD704710B50446022249B104290ED0E3
:10115000082913D094F84100012816D0012010BDB1
:1011600094F83E000128F9D184F83E200FE094F86D
:101170003F000128F2D184F83F2008E094F84000B5
:101180000128EBD184F8402001E084F841200122BD
:10119000206800F0F9FB0F492068884203D1426CB7
:1011A00042F4004242642068884208D0B0F1804F87
:1011B00005D00949884202D00849884204D1816893
:1011C00001F00701062903D0016841F00101016027
:1011D000002010BD002C0140000400400008004029
:1011E000FEE701684A69D24352050FD46FF480626A
:1011F0004A61002140F8301F202242738173026946
:1012000042F0040202610173012070470020704720
:101210002DE9F843044600680D46DDE908970168AA
:101220009846164641F4807101604B4600224FF00B
:1012300001112046009700F06BF848B12068006863
:10124000C00502D54FF4007020640320BDE8F88388
:10125000216805F0FE0008613B464A4615492046D4
:1012600000F09EF888B920684169806900903A468C
:101270004946204600F0F2F848B1206C042804D119
:101280002068016841F4007101600120DEE7F5B2D9
:10129000B8F1010F09D02168300A08613A46494681
:1012A000204600F0DBF80028E7D120680561002027
:1012B000CCE700000200010070B516460D4604465A
:1012C0001EE02046FFF78DFF08B1012070BD681CAD
:1012D00016D0FFF7F1F8801BA84200D885B9206826
:1012E0004069C04340070BD5002044F8300F20214F
:1012F0006173A073216941F0200121612073E4E74B
:1013000020684069C0434007DBD4002070BD000066
:101310002DE9F047984617460D460446C1F30746A7
:10132000DDF820902AE000BFB8F1FF3F26D0FFF79C
:10133000C3F8A0EB0901414502D8B8F1000F1DD157
:101340002068012E16D0806925EA00000004000CF8
:1013500012D00020B84211D1002044F8300F2021D3
:101360006173A073216941F0200121612073012084
:10137000BDE8F0874069E7E70120EBE72068012E30
:101380000AD0806925EA00000004000C06D0002085
:10139000B842C9D00020EBE74069F3E70120F7E746
:1013A0002DE9F047984616460D4604464FF00009D1
:1013B0004FF0200AC1F3074723E020684069C0438B
:1013C000400515D42068016841F40071016021686E
:1013D0006FF480604861C4F8309084F83DA084F8D0
:1013E0003E90216C41F00401216484F83C9021E09E
:1013F000701C06D0FFF760F8A0EB0800B04203D8DD
:1014000016B1012F1FD021E02068012F15D080696F
:1014100025EA00000004000C18D000BF44F8309FFB
:1014200084F80DA084F80E90216941F0200121611B
:1014300084F80C900120BDE8F087406925EA00009F
:101440000004000CEAD12068406901E0206880694E
:1014500025EA00000004000CAFD1ECE770B5164699
:101460000D4604461EE02046FFF7BBFE08B10120F2
:1014700070BD681C16D0FFF71FF8801BA84200D86B
:1014800085B920684069C04300060BD5002044F8A8
:10149000300F20216173A073216941F02001216187
:1014A0002073E4E720684069C0430006DBD40020D5
:1014B00070BD000010B500F07FF808210348FFF769
:1014C00041FEBDE8104000F003B800008400002099
:1014D0002DE9F04186B00024244800940194029440
:1014E0000394816941F010018161816901F010016B
:1014F0000491816941F020018161816901F020013D
:101500000491816941F004018161816901F0040164
:101510000491816941F0080181618069012200F034
:101520000800134F5503049029463846FEF7BEFFC6
:10153000DFF840800022F0214046FEF7B7FF00951B
:10154000032601250396CDE9015469463846FEF786
:10155000B5FEF020CDE90005CDE9024669464046DA
:10156000FEF7ACFE06B0BDE8F081000000100240BE
:1015700000100140000801400D4810B50B49016002
:101580000C49416000214FF480428160C0E90312A0
:1015900041618161C1610162FEF794FF002803D0BF
:1015A000BDE81040FEF775BE10BD000000540040BD
:1015B00030000020A086010010B58EB000240794F2
:1015C000089409940A940B941C2168460C94FEF725
:1015D000FBFD1D484FF0804101604721C0E9011427
:1015E0006321C0E903148461FFF724FC08B1FEF70E
:1015F00050FE4FF48050079007A91348FFF766FC90
:1016000008B1FEF746FE1048FFF76EFD08B1FEF781
:1016100040FE0B940BA90C480C94FFF7D7FB08B1C4
:10162000FEF737FE6020CDE90004029408226946E7
:1016300005480494FFF7F2FC08B1FEF72AFE0248C1
:10164000FFF7B2FC0EB010BD8400002010B58EB0C4
:1016500000240794089409940A940B941C2168466A
:101660000C94FEF7B1FD1E481C4901604721C0E9FA
:10167000011444F61F61C0E903148461FFF7DAFB2B
:1016800008B1FEF706FE4FF48050079007A91448F2
:10169000FFF71CFC08B1FEF7FCFD1148FFF724FD25
:1016A00008B1FEF7F6FD0B940BA90D480C94FFF75B
:1016B0008DFB08B1FEF7EDFD6020CDE9000402943A
:1016C0000822694606480494FFF7A8FC08B1FEF713
:1016D000E0FD0348FFF768FC0EB010BD00040040B9
:1016E000CC000020FEE7FEE770B5002404F1B00056
:1016F000C0B200F099F8002000F096F8102000F039
:1017000093F80025002000F0A1F86D1CEDB2802DAB
:10171000F8D3641CE4B2082CE8D370BD10B58D205A
:1017200000F082F8142000F07FF8BDE81040AF20F0
:1017300000F07AB810B5C820FEF7AEFDBDE8104045
:1017400000F008BA10B50446B031C8B200F06CF829
:10175000102040EA141000F067F804F00F00BDE814
:10176000104000F061B800002DE9F041203A00245B
:101770000D468046D6B27F2803D900208D1C8046B6
:10178000EDB2102B29460FD0FFF7DCFF164906EB10
:10179000460001EB4005285D00F058F8641CE4B2F7
:1017A000062CF8D3BDE8F081FFF7CCFF0F4F00BF48
:1017B00004EB0610385C00F049F8641CE4B2082C15
:1017C000F6D36D1CE9B24046FFF7BCFF5FF00004A2
:1017D00004EB06103844007A00F038F8641CE4B2D8
:1017E000082CF5D3DEE700001C1C0008441E00088E
:1017F0002DE9F041984617460E46044600250DE0B7
:10180000434631462046FFF7AFFF0834E4B2782C58
:1018100002D90024B61CF6B26D1CEDB27A5D002A26
:10182000EED1BDE8F081000001B584B001214FF494
:10183000807204A88DE807000B4600227821024838
:10184000FEF704FF05B000BD3000002001B584B0F4
:1018500001214FF4807204A88DE807000B46402256
:1018600078210248FEF7F2FE05B000BD30000020EE
:1018700001490968C8637047CC0000207047000028
:1018800010B5FFF7E3FE08210448FFF75BFCFFF704
:101890001FFEBDE81040002000F002B8CC00002080
:1018A0004FF4FA614843B421B0FBF1F000F5FA704F
:1018B000FFF7DEBF7047FEF78FBF30B58FB028212E
:1018C0006846FEF781FC14210AA8FEF77DFC012181
:1018D0000804CDE900100024029402250491CDE90A
:1018E00007504FF4E01009906846FFF7CBF808B1B5
:1018F00072B6FEE70F20CDE90A054FF48060CDE90E
:101900000C4002210AA80E94FEF7F0FF002801D037
:1019100072B6FEE70FB030BD70470000F0B5026848
:10192000164B174C174D4FF08047984205D0B842E0
:1019300003D0A04201D0A84203D122F070064A6829
:101940003243984205D0B84203D0A04201D0A84209
:1019500003D122F44074CA6822434C6922F0800209
:10196000224302608A68C2620A688262984201D198
:101970000969016301214161F0BD0000002C0140B3
:10198000000400400008004010B501F01F030121D1
:10199000046A99408C430462016A9A4011430162CF
:1019A00010BD10B5846842EA032224F47F440A4340
:1019B0002243826010BD826822F070020A4342F026
:1019C000070181607047000030B5036A026A22F0A7
:1019D000010202624268846924F073050C682C439A
:1019E00023F002058B682B430A4DA8420BD123F04C
:1019F0000805CB6822F440722B434D6923F00403A1
:101A000015438A692A4342608461496841630362DD
:101A100030BD0000002C014030B5026A036A23F09B
:101A200010030362436884690D6824F4E64444EAC1
:101A300005248D6822F0200242EA05120B4DA842CF
:101A40000ED1CD6822F0800242EA05124D6923F4DE
:101A5000406343EA85038D6922F0400243EA85032F
:101A60004360846149688163026230BD002C01409B
:101A700030B5036A026A22F4807202624268C46965
:101A800023F4007324F073050C682C438D6843EA3B
:101A900005230C4DA8420ED1CD6823F4006343EA20
:101AA00005234D6922F4405242EA05128D6923F460
:101AB000806342EA05124260C4614968C1630362FF
:101AC00030BD0000002C014030B5046A026A22F4E7
:101AD000805202624268C3690D6823F4E64343EA18
:101AE00005238D6824F4005444EA0534064DA842C9
:101AF00004D14D6922F4804242EA85124260C361FA
:101B000049680164046230BD002C014010B5036ACD
:101B1000046A24F001040462846924F0F00444EAB5
:101B2000021423F00A020A438461026210BD10B558
:101B3000036A046A24F010040462846923F0A00399
:101B400024F4704444EA023243EA011182610162E2
:101B500010BDFEE7FEB50024094F4FF48075012645
:101B60003819CDE9000601230022782102950548A5
:101B7000FEF76CFD641CE4B21B2CF1D3FEBD00002B
:101B800004000020300000200907090E002804DBB3
:101B900000F1E02080F80014704700F00F0000F121
:101BA000E02080F8141D70470EB5FEF71DFEFFF70C
:101BB00084FEFFF78DFCFFF7DFFCFFF7FDFCFFF76E
:101BC00045FDFFF777FCFFF75BFEFFF7B3FDFFF77F
:101BD000A5FDFFF789FD0DA20B2307CA8DE80700BD
:101BE0000A216A460846FFF703FE0B4D4FF40054E6
:101BF00040F2F31621462846FEF750FC5A20FFF724
:101C00004FFE3046FEF748FBF4E7000073696C7640
:101C100065725F79696E00000010014000000000ED
:101C200000000000002F0000000007000700001463
:101C30007F147F1400242A7F2A1200626408132371
:101C400000364955225000000503000000001C2208
:101C50004100000041221C000014083E0814000846
:101C6000083E0808000000A06000000808080808F6
:101C7000000060600000002010080402003E51498E
:101C8000453E0000427F400000426151494600212C
:101C900041454B31001814127F1000274545453946
:101CA000003C4A49493000017109050300364949A1
:101CB000493600064949291E00003636000000005A
:101CC00056360000000814224100001414141414A5
:101CD000000041221408000201510906003249594E
:101CE000513E007C1211127C007F49494936003E6A
:101CF00041414122007F4141221C007F4949494125
:101D0000007F09090901003E4149497A007F08081E
:101D1000087F0000417F4100002040413F01007FDB
:101D200008142241007F40404040007F020C027FA7
:101D3000007F0408107F003E4141413E007F0909B9
:101D40000906003E4151215E007F091929460046DF
:101D5000494949310001017F0101003F4040403FB6
:101D6000001F2040201F003F4038403F0063140800
:101D700014630007087008070061514945430000DB
:101D80007F41410000552A552A55000041417F00FE
:101D900000040201020400404040404000000102F3
:101DA0000400002054545478007F484444380038DC
:101DB0004444442000384444487F00385454541864
:101DC00000087E0901020018A4A4A47C007F080476
:101DD00004780000447D4000004080847D00007F46
:101DE000102844000000417F4000007C0418047863
:101DF000007C0804047800384444443800FC24245F
:101E000024180018242418FC007C08040408004846
:101E10005454542000043F444020003C4040207C67
:101E2000001C2040201C003C4030403C0044281056
:101E30002844001CA0A0A07C004464544C4414140A
:101E40001414141400000000000000000000000042
:101E500000000000000000F8000000000000003357
:101E60003000000000100C06100C060000000000FE
:101E70000000000040C07840C0784000043F0404E7
:101E80003F040400007088FC08300000001820FFA8
:101E9000211E0000F008F000E018000000211C03E3
:101EA0001E211E0000F00888700000001E2123245F
:101EB0001927211010160E0000000000000000007D
:101EC00000000000000000E018040200000000070D
:101ED0001820400000020418E00000000040201814
:101EE00007000000404080F0804040000202010FE7
:101EF00001020200000000F0000000000101011FCB
:101F000001010100000000000000000080B070002E
:101F100000000000000000000000000000010101BE
:101F2000010101010000000000000000003030004D
:101F30000000000000000000806018040060180627
:101F40000100000000E010080810E000000F102061
:101F500020100F00001010F8000000000020203FAB
:101F60002020000000700808088870000030282435
:101F700022213000003008888848300000182020D6
:101F800020110E000000C02010F8000000070424FB
:101F9000243F240000F80888880808000019212040
:101FA00020110E0000E0108888180000000F11209A
:101FB00020110E0000380808C83808000000003F53
:101FC000000000000070880808887000001C2221B2
:101FD00021221C0000E010080810E000000031225F
:101FE00022110F00000000C0C000000000000030FF
:101FF0003000000000000080000000000000806051
:1020000000000000000080402010080000010204D1
:1020100008102000404040404040400004040404B8
:102020000404040000081020408000000020100874
:1020300004020100007048080808F00000000030A9
:1020400036010000C030C828E810E0000718272437
:1020500023140B000000C038E0000000203C2302E5
:102060000227382008F8888888700000203F202048
:1020700020110E00C030080808083800071820207A
:102080002010080008F808080810E000203F202071
:1020900020100F0008F88888E8081000203F202052
:1020A0002320180008F88888E8081000203F200046
:1020B00003000000C030080808380000071820207E
:1020C000221E020008F808000008F808203F21013D
:1020D00001213F20000808F8080800000020203FE8
:1020E0002020000000000808F8080800C080808058
:1020F0007F00000008F888C028180800203F200151
:102100002638200008F8080000000000203F2020AA
:102110002020300008F8F800F8F80800203F003FC1
:10212000003F200008F830C00008F808203F2000D9
:1021300007183F00E01008080810E0000F102020EA
:1021400020100F0008F808080808F000203F2101BF
:1021500001010000E01008080810E0000F18242416
:1021600038504F0008F8888888887000203F200089
:10217000030C30200070880808083800003820213F
:1021800021221C00180808F8080818000000203F49
:102190002000000008F808000008F808001F2020B0
:1021A00020201F000878880000C838080000073881
:1021B0000E010000F80800F80008F800033C0700D2
:1021C000073C0300081868808068180820302C033A
:1021D000032C30200838C800C83808000000203F11
:1021E0002000000010080808C83808002038262100
:1021F00020201800000000FE020202000000007F04
:1022000040404000000C30C0000000000000000111
:102210000638C00000020202FE00000000404040FC
:102220007F00000000000402020204000000000021
:10223000000000000000000000000000808080809E
:102240008080808000020204000000000000000086
:10225000000000000000808080800000001924221F
:1022600022223F2008F8008080000000003F11205B
:1022700020110E000000008080800000000E112060
:1022800020201100000000808088F800000E11203E
:1022900020103F200000808080800000001F22224C
:1022A00022221300008080F0888888180020203FB8
:1022B000202000000000808080808000006B9494CB
:1022C0009493600008F8008080800000203F210087
:1022D00000203F2000809898000000000020203F50
:1022E00020200000000000809898000000C080803E
:1022F000807F000008F8000080808000203F2402DA
:102300002D302000000808F8000000000020203FC9
:10231000202000008080808080808000203F20007E
:102320003F20003F8080008080800000203F21000F
:1023300000203F200000808080800000001F2020BF
:1023400020201F00808000808000000080FFA120EE
:1023500020110E000000008080808000000E1120FF
:1023600020A0FF80808080008080800020203F218E
:102370002000010000008080808080000033242441
:1023800024241900008080E0808000000000001FED
:10239000202000008080000000808000001F20209E
:1023A00020103F20808080000080808000010E305F
:1023B0000806010080800080008080800F300C03C0
:1023C0000C300F0000808000808080000020312EC3
:1023D0000E312000808080000080808080818E709F
:1023E0001806010000808080808080000021302C51
:1023F0002221300000000000807C0202000000006A
:10240000003F404000000000FF000000000000000E
:10241000FF0000000002027C800000000040403FFE
:102420000000000000060101020204040000000098
:1024300000000000010202030405060708090A0B58
:102440000C0D0E0F10100000000000000000010233
:10245000030406070809000000000102030400004D
:10246000802400080000002030000000280100083F
:10247000B024000830000020480700004401000894
:1024800000000000AE001040B081FFA1A6A83FC828
:10249000D300D580D805D9F1DA12D8308D14AF0029
:1024A0000100000010000000000000000024F40003
:04000005080000ED02
:00000001FF
